{
  "contractName": "OMGToken",
  "abi": [
    {
      "constant": true,
      "inputs": [],
      "name": "mintingFinished",
      "outputs": [
        {
          "name": "",
          "type": "bool"
        }
      ],
      "payable": false,
      "stateMutability": "view",
      "type": "function"
    },
    {
      "constant": true,
      "inputs": [],
      "name": "name",
      "outputs": [
        {
          "name": "",
          "type": "string"
        }
      ],
      "payable": false,
      "stateMutability": "view",
      "type": "function"
    },
    {
      "constant": false,
      "inputs": [
        {
          "name": "_spender",
          "type": "address"
        },
        {
          "name": "_value",
          "type": "uint256"
        }
      ],
      "name": "approve",
      "outputs": [],
      "payable": false,
      "stateMutability": "nonpayable",
      "type": "function"
    },
    {
      "constant": true,
      "inputs": [],
      "name": "totalSupply",
      "outputs": [
        {
          "name": "",
          "type": "uint256"
        }
      ],
      "payable": false,
      "stateMutability": "view",
      "type": "function"
    },
    {
      "constant": false,
      "inputs": [
        {
          "name": "_from",
          "type": "address"
        },
        {
          "name": "_to",
          "type": "address"
        },
        {
          "name": "_value",
          "type": "uint256"
        }
      ],
      "name": "transferFrom",
      "outputs": [],
      "payable": false,
      "stateMutability": "nonpayable",
      "type": "function"
    },
    {
      "constant": true,
      "inputs": [],
      "name": "decimals",
      "outputs": [
        {
          "name": "",
          "type": "uint256"
        }
      ],
      "payable": false,
      "stateMutability": "view",
      "type": "function"
    },
    {
      "constant": false,
      "inputs": [],
      "name": "unpause",
      "outputs": [
        {
          "name": "",
          "type": "bool"
        }
      ],
      "payable": false,
      "stateMutability": "nonpayable",
      "type": "function"
    },
    {
      "constant": false,
      "inputs": [
        {
          "name": "_to",
          "type": "address"
        },
        {
          "name": "_amount",
          "type": "uint256"
        }
      ],
      "name": "mint",
      "outputs": [
        {
          "name": "",
          "type": "bool"
        }
      ],
      "payable": false,
      "stateMutability": "nonpayable",
      "type": "function"
    },
    {
      "constant": true,
      "inputs": [],
      "name": "paused",
      "outputs": [
        {
          "name": "",
          "type": "bool"
        }
      ],
      "payable": false,
      "stateMutability": "view",
      "type": "function"
    },
    {
      "constant": true,
      "inputs": [
        {
          "name": "_owner",
          "type": "address"
        }
      ],
      "name": "balanceOf",
      "outputs": [
        {
          "name": "balance",
          "type": "uint256"
        }
      ],
      "payable": false,
      "stateMutability": "view",
      "type": "function"
    },
    {
      "constant": false,
      "inputs": [],
      "name": "finishMinting",
      "outputs": [
        {
          "name": "",
          "type": "bool"
        }
      ],
      "payable": false,
      "stateMutability": "nonpayable",
      "type": "function"
    },
    {
      "constant": false,
      "inputs": [],
      "name": "pause",
      "outputs": [
        {
          "name": "",
          "type": "bool"
        }
      ],
      "payable": false,
      "stateMutability": "nonpayable",
      "type": "function"
    },
    {
      "constant": true,
      "inputs": [],
      "name": "owner",
      "outputs": [
        {
          "name": "",
          "type": "address"
        }
      ],
      "payable": false,
      "stateMutability": "view",
      "type": "function"
    },
    {
      "constant": true,
      "inputs": [],
      "name": "symbol",
      "outputs": [
        {
          "name": "",
          "type": "string"
        }
      ],
      "payable": false,
      "stateMutability": "view",
      "type": "function"
    },
    {
      "constant": false,
      "inputs": [
        {
          "name": "_to",
          "type": "address"
        },
        {
          "name": "_value",
          "type": "uint256"
        }
      ],
      "name": "transfer",
      "outputs": [],
      "payable": false,
      "stateMutability": "nonpayable",
      "type": "function"
    },
    {
      "constant": false,
      "inputs": [
        {
          "name": "_to",
          "type": "address"
        },
        {
          "name": "_amount",
          "type": "uint256"
        },
        {
          "name": "_releaseTime",
          "type": "uint256"
        }
      ],
      "name": "mintTimelocked",
      "outputs": [
        {
          "name": "",
          "type": "address"
        }
      ],
      "payable": false,
      "stateMutability": "nonpayable",
      "type": "function"
    },
    {
      "constant": true,
      "inputs": [
        {
          "name": "_owner",
          "type": "address"
        },
        {
          "name": "_spender",
          "type": "address"
        }
      ],
      "name": "allowance",
      "outputs": [
        {
          "name": "remaining",
          "type": "uint256"
        }
      ],
      "payable": false,
      "stateMutability": "view",
      "type": "function"
    },
    {
      "constant": false,
      "inputs": [
        {
          "name": "newOwner",
          "type": "address"
        }
      ],
      "name": "transferOwnership",
      "outputs": [],
      "payable": false,
      "stateMutability": "nonpayable",
      "type": "function"
    },
    {
      "anonymous": false,
      "inputs": [
        {
          "indexed": true,
          "name": "to",
          "type": "address"
        },
        {
          "indexed": false,
          "name": "value",
          "type": "uint256"
        }
      ],
      "name": "Mint",
      "type": "event"
    },
    {
      "anonymous": false,
      "inputs": [],
      "name": "MintFinished",
      "type": "event"
    },
    {
      "anonymous": false,
      "inputs": [],
      "name": "Pause",
      "type": "event"
    },
    {
      "anonymous": false,
      "inputs": [],
      "name": "Unpause",
      "type": "event"
    },
    {
      "anonymous": false,
      "inputs": [
        {
          "indexed": false,
          "name": "_name",
          "type": "string"
        },
        {
          "indexed": false,
          "name": "_val",
          "type": "uint256"
        }
      ],
      "name": "Dummy",
      "type": "event"
    },
    {
      "anonymous": false,
      "inputs": [
        {
          "indexed": false,
          "name": "_name",
          "type": "string"
        },
        {
          "indexed": false,
          "name": "_address",
          "type": "address"
        }
      ],
      "name": "DummyAddr",
      "type": "event"
    },
    {
      "anonymous": false,
      "inputs": [
        {
          "indexed": true,
          "name": "owner",
          "type": "address"
        },
        {
          "indexed": true,
          "name": "spender",
          "type": "address"
        },
        {
          "indexed": false,
          "name": "value",
          "type": "uint256"
        }
      ],
      "name": "Approval",
      "type": "event"
    },
    {
      "anonymous": false,
      "inputs": [
        {
          "indexed": true,
          "name": "from",
          "type": "address"
        },
        {
          "indexed": true,
          "name": "to",
          "type": "address"
        },
        {
          "indexed": false,
          "name": "value",
          "type": "uint256"
        }
      ],
      "name": "Transfer",
      "type": "event"
    }
  ],
  "bytecode": "0x60606040526000600360146101000a81548160ff0219169083151502179055506000600360156101000a81548160ff02191690831515021790555060006004556040805190810160405280600881526020017f4f4d47546f6b656e000000000000000000000000000000000000000000000000815250600590805190602001906200008c92919062000127565b506040805190810160405280600381526020017f4f4d47000000000000000000000000000000000000000000000000000000000081525060069080519060200190620000da92919062000127565b50601260075533600360006101000a81548173ffffffffffffffffffffffffffffffffffffffff021916908373ffffffffffffffffffffffffffffffffffffffff160217905550620001d6565b828054600181600116156101000203166002900490600052602060002090601f016020900481019282601f106200016a57805160ff19168380011785556200019b565b828001600101855582156200019b579182015b828111156200019a5782518255916020019190600101906200017d565b5b509050620001aa9190620001ae565b5090565b620001d391905b80821115620001cf576000816000905550600101620001b5565b5090565b90565b6118fe80620001e66000396000f3006060604052600436106100fc576000357c0100000000000000000000000000000000000000000000000000000000900463ffffffff16806305d2035b1461010157806306fdde031461012e578063095ea7b3146101bc57806318160ddd146101fe57806323b872dd14610227578063313ce567146102885780633f4ba83a146102b157806340c10f19146102de5780635c975abb1461033857806370a08231146103655780637d64bcb4146103b25780638456cb59146103df5780638da5cb5b1461040c57806395d89b4114610461578063a9059cbb146104ef578063c14a3b8c14610531578063dd62ed3e146105bc578063f2fde38b14610628575b600080fd5b341561010c57600080fd5b610114610661565b604051808215151515815260200191505060405180910390f35b341561013957600080fd5b610141610674565b6040518080602001828103825283818151815260200191508051906020019080838360005b83811015610181578082015181840152602081019050610166565b50505050905090810190601f1680156101ae5780820380516001836020036101000a031916815260200191505b509250505060405180910390f35b34156101c757600080fd5b6101fc600480803573ffffffffffffffffffffffffffffffffffffffff16906020019091908035906020019091905050610712565b005b341561020957600080fd5b610211610894565b6040518082815260200191505060405180910390f35b341561023257600080fd5b610286600480803573ffffffffffffffffffffffffffffffffffffffff1690602001909190803573ffffffffffffffffffffffffffffffffffffffff1690602001909190803590602001909190505061089a565b005b341561029357600080fd5b61029b6108c4565b6040518082815260200191505060405180910390f35b34156102bc57600080fd5b6102c46108ca565b604051808215151515815260200191505060405180910390f35b34156102e957600080fd5b61031e600480803573ffffffffffffffffffffffffffffffffffffffff16906020019091908035906020019091905050610991565b604051808215151515815260200191505060405180910390f35b341561034357600080fd5b61034b610b11565b604051808215151515815260200191505060405180910390f35b341561037057600080fd5b61039c600480803573ffffffffffffffffffffffffffffffffffffffff16906020019091905050610b24565b6040518082815260200191505060405180910390f35b34156103bd57600080fd5b6103c5610b6d565b604051808215151515815260200191505060405180910390f35b34156103ea57600080fd5b6103f2610c19565b604051808215151515815260200191505060405180910390f35b341561041757600080fd5b61041f610cdf565b604051808273ffffffffffffffffffffffffffffffffffffffff1673ffffffffffffffffffffffffffffffffffffffff16815260200191505060405180910390f35b341561046c57600080fd5b610474610d05565b6040518080602001828103825283818151815260200191508051906020019080838360005b838110156104b4578082015181840152602081019050610499565b50505050905090810190601f1680156104e15780820380516001836020036101000a031916815260200191505b509250505060405180910390f35b34156104fa57600080fd5b61052f600480803573ffffffffffffffffffffffffffffffffffffffff16906020019091908035906020019091905050610da3565b005b341561053c57600080fd5b61057a600480803573ffffffffffffffffffffffffffffffffffffffff16906020019091908035906020019091908035906020019091905050610dcb565b604051808273ffffffffffffffffffffffffffffffffffffffff1673ffffffffffffffffffffffffffffffffffffffff16815260200191505060405180910390f35b34156105c757600080fd5b610612600480803573ffffffffffffffffffffffffffffffffffffffff1690602001909190803573ffffffffffffffffffffffffffffffffffffffff16906020019091905050610eed565b6040518082815260200191505060405180910390f35b341561063357600080fd5b61065f600480803573ffffffffffffffffffffffffffffffffffffffff16906020019091905050610f74565b005b600360159054906101000a900460ff1681565b60058054600181600116156101000203166002900480601f01602080910402602001604051908101604052809291908181526020018280546001816001161561010002031660029004801561070a5780601f106106df5761010080835404028352916020019161070a565b820191906000526020600020905b8154815290600101906020018083116106ed57829003601f168201915b505050505081565b600081141580156107a057506000600260003373ffffffffffffffffffffffffffffffffffffffff1673ffffffffffffffffffffffffffffffffffffffff16815260200190815260200160002060008473ffffffffffffffffffffffffffffffffffffffff1673ffffffffffffffffffffffffffffffffffffffff1681526020019081526020016000205414155b156107aa57600080fd5b80600260003373ffffffffffffffffffffffffffffffffffffffff1673ffffffffffffffffffffffffffffffffffffffff16815260200190815260200160002060008473ffffffffffffffffffffffffffffffffffffffff1673ffffffffffffffffffffffffffffffffffffffff168152602001908152602001600020819055508173ffffffffffffffffffffffffffffffffffffffff163373ffffffffffffffffffffffffffffffffffffffff167f8c5be1e5ebec7d5bd14f71427d1e84f3dd0314c0f7b2291e5b200ac8c7c3b925836040518082815260200191505060405180910390a35050565b60045481565b600360149054906101000a900460ff16156108b457600080fd5b6108bf83838361104b565b505050565b60075481565b6000600360009054906101000a900473ffffffffffffffffffffffffffffffffffffffff1673ffffffffffffffffffffffffffffffffffffffff163373ffffffffffffffffffffffffffffffffffffffff1614151561092857600080fd5b600360149054906101000a900460ff16151561094357600080fd5b6000600360146101000a81548160ff0219169083151502179055507f7805862f689e2f13df9f062ff482ad3ad112aca9e0847911ed832e158c525b3360405160405180910390a16001905090565b6000600360009054906101000a900473ffffffffffffffffffffffffffffffffffffffff1673ffffffffffffffffffffffffffffffffffffffff163373ffffffffffffffffffffffffffffffffffffffff161415156109ef57600080fd5b600360159054906101000a900460ff1615610a0957600080fd5b610a1e8260045461130b90919063ffffffff16565b600481905550610a7682600160008673ffffffffffffffffffffffffffffffffffffffff1673ffffffffffffffffffffffffffffffffffffffff1681526020019081526020016000205461130b90919063ffffffff16565b600160008573ffffffffffffffffffffffffffffffffffffffff1673ffffffffffffffffffffffffffffffffffffffff168152602001908152602001600020819055508273ffffffffffffffffffffffffffffffffffffffff167f0f6798a560793a54c3bcfe86a93cde1e73087d944c0ea20544137d4121396885836040518082815260200191505060405180910390a26001905092915050565b600360149054906101000a900460ff1681565b6000600160008373ffffffffffffffffffffffffffffffffffffffff1673ffffffffffffffffffffffffffffffffffffffff168152602001908152602001600020549050919050565b6000600360009054906101000a900473ffffffffffffffffffffffffffffffffffffffff1673ffffffffffffffffffffffffffffffffffffffff163373ffffffffffffffffffffffffffffffffffffffff16141515610bcb57600080fd5b6001600360156101000a81548160ff0219169083151502179055507fae5184fba832cb2b1f702aca6117b8d265eaf03ad33eb133f19dde0f5920fa0860405160405180910390a16001905090565b6000600360009054906101000a900473ffffffffffffffffffffffffffffffffffffffff1673ffffffffffffffffffffffffffffffffffffffff163373ffffffffffffffffffffffffffffffffffffffff16141515610c7757600080fd5b600360149054906101000a900460ff1615610c9157600080fd5b6001600360146101000a81548160ff0219169083151502179055507f6985a02210a168e66602d3235cb6db0e70f92b3ba4d376a33c0f3d9434bff62560405160405180910390a16001905090565b600360009054906101000a900473ffffffffffffffffffffffffffffffffffffffff1681565b60068054600181600116156101000203166002900480601f016020809104026020016040519081016040528092919081815260200182805460018160011615610100020316600290048015610d9b5780601f10610d7057610100808354040283529160200191610d9b565b820191906000526020600020905b815481529060010190602001808311610d7e57829003601f168201915b505050505081565b600360149054906101000a900460ff1615610dbd57600080fd5b610dc78282611329565b5050565b600080600360009054906101000a900473ffffffffffffffffffffffffffffffffffffffff1673ffffffffffffffffffffffffffffffffffffffff163373ffffffffffffffffffffffffffffffffffffffff16141515610e2a57600080fd5b600360159054906101000a900460ff1615610e4457600080fd5b308584610e4f6114fb565b808473ffffffffffffffffffffffffffffffffffffffff1673ffffffffffffffffffffffffffffffffffffffff1681526020018373ffffffffffffffffffffffffffffffffffffffff1673ffffffffffffffffffffffffffffffffffffffff1681526020018281526020019350505050604051809103906000f0801515610ed557600080fd5b9050610ee18185610991565b50809150509392505050565b6000600260008473ffffffffffffffffffffffffffffffffffffffff1673ffffffffffffffffffffffffffffffffffffffff16815260200190815260200160002060008373ffffffffffffffffffffffffffffffffffffffff1673ffffffffffffffffffffffffffffffffffffffff16815260200190815260200160002054905092915050565b600360009054906101000a900473ffffffffffffffffffffffffffffffffffffffff1673ffffffffffffffffffffffffffffffffffffffff163373ffffffffffffffffffffffffffffffffffffffff16141515610fd057600080fd5b600073ffffffffffffffffffffffffffffffffffffffff168173ffffffffffffffffffffffffffffffffffffffff161415156110485780600360006101000a81548173ffffffffffffffffffffffffffffffffffffffff021916908373ffffffffffffffffffffffffffffffffffffffff1602179055505b50565b60006060600481016000369050101561106357600080fd5b600260008673ffffffffffffffffffffffffffffffffffffffff1673ffffffffffffffffffffffffffffffffffffffff16815260200190815260200160002060003373ffffffffffffffffffffffffffffffffffffffff1673ffffffffffffffffffffffffffffffffffffffff16815260200190815260200160002054915061113483600160008773ffffffffffffffffffffffffffffffffffffffff1673ffffffffffffffffffffffffffffffffffffffff1681526020019081526020016000205461130b90919063ffffffff16565b600160008673ffffffffffffffffffffffffffffffffffffffff1673ffffffffffffffffffffffffffffffffffffffff168152602001908152602001600020819055506111c983600160008873ffffffffffffffffffffffffffffffffffffffff1673ffffffffffffffffffffffffffffffffffffffff168152602001908152602001600020546114d390919063ffffffff16565b600160008773ffffffffffffffffffffffffffffffffffffffff1673ffffffffffffffffffffffffffffffffffffffff1681526020019081526020016000208190555061121f83836114d390919063ffffffff16565b600260008773ffffffffffffffffffffffffffffffffffffffff1673ffffffffffffffffffffffffffffffffffffffff16815260200190815260200160002060003373ffffffffffffffffffffffffffffffffffffffff1673ffffffffffffffffffffffffffffffffffffffff168152602001908152602001600020819055508373ffffffffffffffffffffffffffffffffffffffff168573ffffffffffffffffffffffffffffffffffffffff167fddf252ad1be2c89b69c2b068fc378daa952ba7f163c4a11628f55a4df523b3ef856040518082815260200191505060405180910390a35050505050565b600080828401905061131f848210156114ec565b8091505092915050565b6040600481016000369050101561133f57600080fd5b61139182600160003373ffffffffffffffffffffffffffffffffffffffff1673ffffffffffffffffffffffffffffffffffffffff168152602001908152602001600020546114d390919063ffffffff16565b600160003373ffffffffffffffffffffffffffffffffffffffff1673ffffffffffffffffffffffffffffffffffffffff1681526020019081526020016000208190555061142682600160008673ffffffffffffffffffffffffffffffffffffffff1673ffffffffffffffffffffffffffffffffffffffff1681526020019081526020016000205461130b90919063ffffffff16565b600160008573ffffffffffffffffffffffffffffffffffffffff1673ffffffffffffffffffffffffffffffffffffffff168152602001908152602001600020819055508273ffffffffffffffffffffffffffffffffffffffff163373ffffffffffffffffffffffffffffffffffffffff167fddf252ad1be2c89b69c2b068fc378daa952ba7f163c4a11628f55a4df523b3ef846040518082815260200191505060405180910390a3505050565b60006114e1838311156114ec565b818303905092915050565b8015156114f857600080fd5b50565b6040516103c78061150c8339019056006060604052341561000f57600080fd5b6040516060806103c783398101604052808051906020019091908051906020019091908051906020019091905050428111151561004b57600080fd5b826000806101000a81548173ffffffffffffffffffffffffffffffffffffffff021916908373ffffffffffffffffffffffffffffffffffffffff16021790555081600160006101000a81548173ffffffffffffffffffffffffffffffffffffffff021916908373ffffffffffffffffffffffffffffffffffffffff160217905550806002819055505050506102e2806100e56000396000f300606060405260043610610041576000357c0100000000000000000000000000000000000000000000000000000000900463ffffffff1680634e71d92d14610046575b600080fd5b341561005157600080fd5b61005961005b565b005b6000600160009054906101000a900473ffffffffffffffffffffffffffffffffffffffff1673ffffffffffffffffffffffffffffffffffffffff163373ffffffffffffffffffffffffffffffffffffffff161415156100b957600080fd5b60025442101515156100ca57600080fd5b6000809054906101000a900473ffffffffffffffffffffffffffffffffffffffff1673ffffffffffffffffffffffffffffffffffffffff166370a08231306000604051602001526040518263ffffffff167c0100000000000000000000000000000000000000000000000000000000028152600401808273ffffffffffffffffffffffffffffffffffffffff1673ffffffffffffffffffffffffffffffffffffffff168152602001915050602060405180830381600087803b151561018e57600080fd5b6102c65a03f1151561019f57600080fd5b5050506040518051905090506000811115156101ba57600080fd5b6000809054906101000a900473ffffffffffffffffffffffffffffffffffffffff1673ffffffffffffffffffffffffffffffffffffffff1663a9059cbb600160009054906101000a900473ffffffffffffffffffffffffffffffffffffffff16836040518363ffffffff167c0100000000000000000000000000000000000000000000000000000000028152600401808373ffffffffffffffffffffffffffffffffffffffff1673ffffffffffffffffffffffffffffffffffffffff16815260200182815260200192505050600060405180830381600087803b151561029f57600080fd5b6102c65a03f115156102b057600080fd5b505050505600a165627a7a72305820081ab2ec5883d7530248dc4f6bc2bcb43bd20db157e65349e17ac9b56bd9b4ee0029a165627a7a723058200507a45ebb10fb558a269d3ce6be5d11e37a4a22a7b3d6744039ecc882e270360029",
  "source": "pragma solidity 0.4.18;\n\n\n/**\n * Math operations with safety checks\n */\nlibrary SafeMath {\n  function mul(uint a, uint b) internal returns (uint) {\n    uint c = a * b;\n    assert(a == 0 || c / a == b);\n    return c;\n  }\n\n  function div(uint a, uint b) internal returns (uint) {\n    // assert(b > 0); // Solidity automatically throws when dividing by 0\n    uint c = a / b;\n    // assert(a == b * c + a % b); // There is no case in which this doesn't hold\n    return c;\n  }\n\n  function sub(uint a, uint b) internal returns (uint) {\n    assert(b <= a);\n    return a - b;\n  }\n\n  function add(uint a, uint b) internal returns (uint) {\n    uint c = a + b;\n    assert(c >= a);\n    return c;\n  }\n\n  function max64(uint64 a, uint64 b) internal constant returns (uint64) {\n    return a >= b ? a : b;\n  }\n\n  function min64(uint64 a, uint64 b) internal constant returns (uint64) {\n    return a < b ? a : b;\n  }\n\n  function max256(uint256 a, uint256 b) internal constant returns (uint256) {\n    return a >= b ? a : b;\n  }\n\n  function min256(uint256 a, uint256 b) internal constant returns (uint256) {\n    return a < b ? a : b;\n  }\n\n  function assert(bool assertion) internal {\n    if (!assertion) {\n      throw;\n    }\n  }\n}\n\n\n/**\n * @title ERC20Basic\n * @dev Simpler version of ERC20 interface\n * @dev see https://github.com/ethereum/EIPs/issues/20\n */\ncontract ERC20Basic {\n  uint public totalSupply;\n  function balanceOf(address who) constant returns (uint);\n  function transfer(address to, uint value);\n  event Transfer(address indexed from, address indexed to, uint value);\n}\n\n\n/**\n * @title Basic token\n * @dev Basic version of StandardToken, with no allowances.\n */\ncontract BasicToken is ERC20Basic {\n  using SafeMath for uint;\n\n  mapping(address => uint) balances;\n\n  /**\n   * @dev Fix for the ERC20 short address attack.\n   */\n  modifier onlyPayloadSize(uint size) {\n     if(msg.data.length < size + 4) {\n       throw;\n     }\n     _;\n  }\n\n  /**\n  * @dev transfer token for a specified address\n  * @param _to The address to transfer to.\n  * @param _value The amount to be transferred.\n  */\n  function transfer(address _to, uint _value) onlyPayloadSize(2 * 32) {\n    balances[msg.sender] = balances[msg.sender].sub(_value);\n    balances[_to] = balances[_to].add(_value);\n    Transfer(msg.sender, _to, _value);\n  }\n\n  /**\n  * @dev Gets the balance of the specified address.\n  * @param _owner The address to query the the balance of.\n  * @return An uint representing the amount owned by the passed address.\n  */\n  function balanceOf(address _owner) constant returns (uint balance) {\n    return balances[_owner];\n  }\n\n}\n\n\n/**\n * @title ERC20 interface\n * @dev see https://github.com/ethereum/EIPs/issues/20\n */\ncontract ERC20 is ERC20Basic {\n  function allowance(address owner, address spender) constant returns (uint);\n  function transferFrom(address from, address to, uint value);\n  function approve(address spender, uint value);\n  event Approval(address indexed owner, address indexed spender, uint value);\n}\n\n\n/**\n * @title Standard ERC20 token\n *\n * @dev Implemantation of the basic standart token.\n * @dev https://github.com/ethereum/EIPs/issues/20\n * @dev Based on code by FirstBlood: https://github.com/Firstbloodio/token/blob/master/smart_contract/FirstBloodToken.sol\n */\ncontract StandardToken is BasicToken, ERC20 {\n\n  mapping (address => mapping (address => uint)) allowed;\n\n  event Dummy(string _name, uint _val);\n  event DummyAddr(string _name, address _address);\n\n  /**\n   * @dev Transfer tokens from one address to another\n   * @param _from address The address which you want to send tokens from\n   * @param _to address The address which you want to transfer to\n   * @param _value uint the amout of tokens to be transfered\n   */\n  function transferFrom(address _from, address _to, uint _value) onlyPayloadSize(3 * 32) {\n    var _allowance = allowed[_from][msg.sender];\n\n    \n    // Check is not needed because sub(_allowance, _value) will already throw if this condition is not met\n    // if (_value > _allowance) throw;\n    \n    balances[_to] = balances[_to].add(_value);\n    balances[_from] = balances[_from].sub(_value);\n    allowed[_from][msg.sender] = _allowance.sub(_value);\n    Transfer(_from, _to, _value);\n    \n  }\n\n  /**\n   * @dev Aprove the passed address to spend the specified amount of tokens on beahlf of msg.sender.\n   * @param _spender The address which will spend the funds.\n   * @param _value The amount of tokens to be spent.\n   */\n  function approve(address _spender, uint _value) {\n\n    // To change the approve amount you first have to reduce the addresses`\n    //  allowance to zero by calling `approve(_spender, 0)` if it is not\n    //  already 0 to mitigate the race condition described here:\n    //  https://github.com/ethereum/EIPs/issues/20#issuecomment-263524729\n    if ((_value != 0) && (allowed[msg.sender][_spender] != 0)) throw;\n\n    allowed[msg.sender][_spender] = _value;\n    Approval(msg.sender, _spender, _value);\n  }\n\n  /**\n   * @dev Function to check the amount of tokens than an owner allowed to a spender.\n   * @param _owner address The address which owns the funds.\n   * @param _spender address The address which will spend the funds.\n   * @return A uint specifing the amount of tokens still avaible for the spender.\n   */\n  function allowance(address _owner, address _spender) constant returns (uint remaining) {\n    return allowed[_owner][_spender];\n  }\n\n}\n\n\n/**\n * @title Ownable\n * @dev The Ownable contract has an owner address, and provides basic authorization control\n * functions, this simplifies the implementation of \"user permissions\".\n */\ncontract Ownable {\n  address public owner;\n\n\n  /**\n   * @dev The Ownable constructor sets the original `owner` of the contract to the sender\n   * account.\n   */\n  function Ownable() {\n    owner = msg.sender;\n  }\n\n\n  /**\n   * @dev Throws if called by any account other than the owner.\n   */\n  modifier onlyOwner() {\n    if (msg.sender != owner) {\n      throw;\n    }\n    _;\n  }\n\n\n  /**\n   * @dev Allows the current owner to transfer control of the contract to a newOwner.\n   * @param newOwner The address to transfer ownership to.\n   */\n  function transferOwnership(address newOwner) onlyOwner {\n    if (newOwner != address(0)) {\n      owner = newOwner;\n    }\n  }\n\n}\n\n\n/**\n * @title Mintable token\n * @dev Simple ERC20 Token example, with mintable token creation\n * @dev Issue: * https://github.com/OpenZeppelin/zeppelin-solidity/issues/120\n * Based on code by TokenMarketNet: https://github.com/TokenMarketNet/ico/blob/master/contracts/MintableToken.sol\n */\n\ncontract MintableToken is StandardToken, Ownable {\n  event Mint(address indexed to, uint value);\n  event MintFinished();\n\n  bool public mintingFinished = false;\n  uint public totalSupply = 0;\n\n\n  modifier canMint() {\n    if(mintingFinished) throw;\n    _;\n  }\n\n  /**\n   * @dev Function to mint tokens\n   * @param _to The address that will recieve the minted tokens.\n   * @param _amount The amount of tokens to mint.\n   * @return A boolean that indicates if the operation was successful.\n   */\n  function mint(address _to, uint _amount) onlyOwner canMint returns (bool) {\n    totalSupply = totalSupply.add(_amount);\n    balances[_to] = balances[_to].add(_amount);\n    Mint(_to, _amount);\n    return true;\n  }\n\n  /**\n   * @dev Function to stop minting new tokens.\n   * @return True if the operation was successful.\n   */\n  function finishMinting() onlyOwner returns (bool) {\n    mintingFinished = true;\n    MintFinished();\n    return true;\n  }\n}\n\n\n/**\n * @title Pausable\n * @dev Base contract which allows children to implement an emergency stop mechanism.\n */\ncontract Pausable is Ownable {\n  event Pause();\n  event Unpause();\n\n  bool public paused = false;\n\n\n  /**\n   * @dev modifier to allow actions only when the contract IS paused\n   */\n  modifier whenNotPaused() {\n    if (paused) throw;\n    _;\n  }\n\n  /**\n   * @dev modifier to allow actions only when the contract IS NOT paused\n   */\n  modifier whenPaused {\n    if (!paused) throw;\n    _;\n  }\n\n  /**\n   * @dev called by the owner to pause, triggers stopped state\n   */\n  function pause() onlyOwner whenNotPaused returns (bool) {\n    paused = true;\n    Pause();\n    return true;\n  }\n\n  /**\n   * @dev called by the owner to unpause, returns to normal state\n   */\n  function unpause() onlyOwner whenPaused returns (bool) {\n    paused = false;\n    Unpause();\n    return true;\n  }\n}\n\n\n/**\n * Pausable token\n *\n * Simple ERC20 Token example, with pausable token creation\n **/\n\ncontract PausableToken is StandardToken, Pausable {\n\n  function transfer(address _to, uint _value) whenNotPaused {\n    super.transfer(_to, _value);\n  }\n\n  function transferFrom(address _from, address _to, uint _value) whenNotPaused {\n    super.transferFrom(_from, _to, _value);\n  }\n}\n\n\n/**\n * @title TokenTimelock\n * @dev TokenTimelock is a token holder contract that will allow a\n * beneficiary to extract the tokens after a time has passed\n */\ncontract TokenTimelock {\n\n  // ERC20 basic token contract being held\n  ERC20Basic token;\n\n  // beneficiary of tokens after they are released\n  address beneficiary;\n\n  // timestamp where token release is enabled\n  uint releaseTime;\n\n  function TokenTimelock(ERC20Basic _token, address _beneficiary, uint _releaseTime) {\n    require(_releaseTime > now);\n    token = _token;\n    beneficiary = _beneficiary;\n    releaseTime = _releaseTime;\n  }\n\n  /**\n   * @dev beneficiary claims tokens held by time lock\n   */\n  function claim() {\n    require(msg.sender == beneficiary);\n    require(now >= releaseTime);\n\n    uint amount = token.balanceOf(this);\n    require(amount > 0);\n\n    token.transfer(beneficiary, amount);\n  }\n}\n\n\n/**\n * @title OMGToken\n * @dev Omise Go Token contract\n */\ncontract OMGToken is PausableToken, MintableToken {\n  using SafeMath for uint256;\n\n  string public name = \"OMGToken\";\n  string public symbol = \"OMG\";\n  uint public decimals = 18;\n\n  /**\n   * @dev mint timelocked tokens\n   */\n  function mintTimelocked(address _to, uint256 _amount, uint256 _releaseTime)\n    onlyOwner canMint returns (TokenTimelock) {\n\n    TokenTimelock timelock = new TokenTimelock(this, _to, _releaseTime);\n    mint(timelock, _amount);\n\n    return timelock;\n  }\n\n}",
  "sourcePath": "/home/john/Dropbox/Projects/unum/contracts/dummy/OMGToken.sol",
  "compiler": {
    "name": "solc",
    "version": "0.4.18+commit.9cf6e910.Emscripten.clang"
  },
  "schemaVersion": "1.0.1",
  "updatedAt": "2017-11-26T20:41:24.971Z"
}