{
  "contractName": "PayToken",
  "abi": [
    {
      "constant": true,
      "inputs": [],
      "name": "mintingFinished",
      "outputs": [
        {
          "name": "",
          "type": "bool"
        }
      ],
      "payable": false,
      "stateMutability": "view",
      "type": "function"
    },
    {
      "constant": true,
      "inputs": [],
      "name": "name",
      "outputs": [
        {
          "name": "",
          "type": "string"
        }
      ],
      "payable": false,
      "stateMutability": "view",
      "type": "function"
    },
    {
      "constant": false,
      "inputs": [
        {
          "name": "_spender",
          "type": "address"
        },
        {
          "name": "_value",
          "type": "uint256"
        }
      ],
      "name": "approve",
      "outputs": [],
      "payable": false,
      "stateMutability": "nonpayable",
      "type": "function"
    },
    {
      "constant": true,
      "inputs": [],
      "name": "totalSupply",
      "outputs": [
        {
          "name": "",
          "type": "uint256"
        }
      ],
      "payable": false,
      "stateMutability": "view",
      "type": "function"
    },
    {
      "constant": false,
      "inputs": [
        {
          "name": "_from",
          "type": "address"
        },
        {
          "name": "_to",
          "type": "address"
        },
        {
          "name": "_value",
          "type": "uint256"
        }
      ],
      "name": "transferFrom",
      "outputs": [],
      "payable": false,
      "stateMutability": "nonpayable",
      "type": "function"
    },
    {
      "constant": false,
      "inputs": [],
      "name": "startTrading",
      "outputs": [],
      "payable": false,
      "stateMutability": "nonpayable",
      "type": "function"
    },
    {
      "constant": true,
      "inputs": [],
      "name": "decimals",
      "outputs": [
        {
          "name": "",
          "type": "uint256"
        }
      ],
      "payable": false,
      "stateMutability": "view",
      "type": "function"
    },
    {
      "constant": false,
      "inputs": [
        {
          "name": "_to",
          "type": "address"
        },
        {
          "name": "_amount",
          "type": "uint256"
        }
      ],
      "name": "mint",
      "outputs": [
        {
          "name": "",
          "type": "bool"
        }
      ],
      "payable": false,
      "stateMutability": "nonpayable",
      "type": "function"
    },
    {
      "constant": true,
      "inputs": [],
      "name": "tradingStarted",
      "outputs": [
        {
          "name": "",
          "type": "bool"
        }
      ],
      "payable": false,
      "stateMutability": "view",
      "type": "function"
    },
    {
      "constant": true,
      "inputs": [
        {
          "name": "_owner",
          "type": "address"
        }
      ],
      "name": "balanceOf",
      "outputs": [
        {
          "name": "balance",
          "type": "uint256"
        }
      ],
      "payable": false,
      "stateMutability": "view",
      "type": "function"
    },
    {
      "constant": false,
      "inputs": [],
      "name": "finishMinting",
      "outputs": [
        {
          "name": "",
          "type": "bool"
        }
      ],
      "payable": false,
      "stateMutability": "nonpayable",
      "type": "function"
    },
    {
      "constant": true,
      "inputs": [],
      "name": "owner",
      "outputs": [
        {
          "name": "",
          "type": "address"
        }
      ],
      "payable": false,
      "stateMutability": "view",
      "type": "function"
    },
    {
      "constant": true,
      "inputs": [],
      "name": "symbol",
      "outputs": [
        {
          "name": "",
          "type": "string"
        }
      ],
      "payable": false,
      "stateMutability": "view",
      "type": "function"
    },
    {
      "constant": false,
      "inputs": [
        {
          "name": "_to",
          "type": "address"
        },
        {
          "name": "_value",
          "type": "uint256"
        }
      ],
      "name": "transfer",
      "outputs": [],
      "payable": false,
      "stateMutability": "nonpayable",
      "type": "function"
    },
    {
      "constant": true,
      "inputs": [
        {
          "name": "_owner",
          "type": "address"
        },
        {
          "name": "_spender",
          "type": "address"
        }
      ],
      "name": "allowance",
      "outputs": [
        {
          "name": "remaining",
          "type": "uint256"
        }
      ],
      "payable": false,
      "stateMutability": "view",
      "type": "function"
    },
    {
      "constant": false,
      "inputs": [
        {
          "name": "newOwner",
          "type": "address"
        }
      ],
      "name": "transferOwnership",
      "outputs": [],
      "payable": false,
      "stateMutability": "nonpayable",
      "type": "function"
    },
    {
      "anonymous": false,
      "inputs": [
        {
          "indexed": true,
          "name": "to",
          "type": "address"
        },
        {
          "indexed": false,
          "name": "value",
          "type": "uint256"
        }
      ],
      "name": "Mint",
      "type": "event"
    },
    {
      "anonymous": false,
      "inputs": [],
      "name": "MintFinished",
      "type": "event"
    },
    {
      "anonymous": false,
      "inputs": [
        {
          "indexed": true,
          "name": "owner",
          "type": "address"
        },
        {
          "indexed": true,
          "name": "spender",
          "type": "address"
        },
        {
          "indexed": false,
          "name": "value",
          "type": "uint256"
        }
      ],
      "name": "Approval",
      "type": "event"
    },
    {
      "anonymous": false,
      "inputs": [
        {
          "indexed": true,
          "name": "from",
          "type": "address"
        },
        {
          "indexed": true,
          "name": "to",
          "type": "address"
        },
        {
          "indexed": false,
          "name": "value",
          "type": "uint256"
        }
      ],
      "name": "Transfer",
      "type": "event"
    }
  ],
  "bytecode": "0x60606040526000600360146101000a81548160ff02191690831515021790555060006004556040805190810160405280600e81526020017f54656e582050617920546f6b656e000000000000000000000000000000000000815250600590805190602001906200007192919062000127565b506040805190810160405280600381526020017f504159000000000000000000000000000000000000000000000000000000000081525060069080519060200190620000bf92919062000127565b5060126007556000600860006101000a81548160ff02191690831515021790555033600360006101000a81548173ffffffffffffffffffffffffffffffffffffffff021916908373ffffffffffffffffffffffffffffffffffffffff160217905550620001d6565b828054600181600116156101000203166002900490600052602060002090601f016020900481019282601f106200016a57805160ff19168380011785556200019b565b828001600101855582156200019b579182015b828111156200019a5782518255916020019190600101906200017d565b5b509050620001aa9190620001ae565b5090565b620001d391905b80821115620001cf576000816000905550600101620001b5565b5090565b90565b61120d80620001e66000396000f3006060604052600436106100e6576000357c0100000000000000000000000000000000000000000000000000000000900463ffffffff16806305d2035b146100eb57806306fdde0314610118578063095ea7b3146101a657806318160ddd146101e857806323b872dd14610211578063293230b814610272578063313ce5671461028757806340c10f19146102b05780635b4f472a1461030a57806370a08231146103375780637d64bcb4146103845780638da5cb5b146103b157806395d89b4114610406578063a9059cbb14610494578063dd62ed3e146104d6578063f2fde38b14610542575b600080fd5b34156100f657600080fd5b6100fe61057b565b604051808215151515815260200191505060405180910390f35b341561012357600080fd5b61012b61058e565b6040518080602001828103825283818151815260200191508051906020019080838360005b8381101561016b578082015181840152602081019050610150565b50505050905090810190601f1680156101985780820380516001836020036101000a031916815260200191505b509250505060405180910390f35b34156101b157600080fd5b6101e6600480803573ffffffffffffffffffffffffffffffffffffffff1690602001909190803590602001909190505061062c565b005b34156101f357600080fd5b6101fb6107ae565b6040518082815260200191505060405180910390f35b341561021c57600080fd5b610270600480803573ffffffffffffffffffffffffffffffffffffffff1690602001909190803573ffffffffffffffffffffffffffffffffffffffff169060200190919080359060200190919050506107b4565b005b341561027d57600080fd5b6102856107df565b005b341561029257600080fd5b61029a610858565b6040518082815260200191505060405180910390f35b34156102bb57600080fd5b6102f0600480803573ffffffffffffffffffffffffffffffffffffffff1690602001909190803590602001909190505061085e565b604051808215151515815260200191505060405180910390f35b341561031557600080fd5b61031d6109de565b604051808215151515815260200191505060405180910390f35b341561034257600080fd5b61036e600480803573ffffffffffffffffffffffffffffffffffffffff169060200190919050506109f1565b6040518082815260200191505060405180910390f35b341561038f57600080fd5b610397610a3a565b604051808215151515815260200191505060405180910390f35b34156103bc57600080fd5b6103c4610ae6565b604051808273ffffffffffffffffffffffffffffffffffffffff1673ffffffffffffffffffffffffffffffffffffffff16815260200191505060405180910390f35b341561041157600080fd5b610419610b0c565b6040518080602001828103825283818151815260200191508051906020019080838360005b8381101561045957808201518184015260208101905061043e565b50505050905090810190601f1680156104865780820380516001836020036101000a031916815260200191505b509250505060405180910390f35b341561049f57600080fd5b6104d4600480803573ffffffffffffffffffffffffffffffffffffffff16906020019091908035906020019091905050610baa565b005b34156104e157600080fd5b61052c600480803573ffffffffffffffffffffffffffffffffffffffff1690602001909190803573ffffffffffffffffffffffffffffffffffffffff16906020019091905050610bd3565b6040518082815260200191505060405180910390f35b341561054d57600080fd5b610579600480803573ffffffffffffffffffffffffffffffffffffffff16906020019091905050610c5a565b005b600360149054906101000a900460ff1681565b60058054600181600116156101000203166002900480601f0160208091040260200160405190810160405280929190818152602001828054600181600116156101000203166002900480156106245780601f106105f957610100808354040283529160200191610624565b820191906000526020600020905b81548152906001019060200180831161060757829003601f168201915b505050505081565b600081141580156106ba57506000600260003373ffffffffffffffffffffffffffffffffffffffff1673ffffffffffffffffffffffffffffffffffffffff16815260200190815260200160002060008473ffffffffffffffffffffffffffffffffffffffff1673ffffffffffffffffffffffffffffffffffffffff1681526020019081526020016000205414155b156106c457600080fd5b80600260003373ffffffffffffffffffffffffffffffffffffffff1673ffffffffffffffffffffffffffffffffffffffff16815260200190815260200160002060008473ffffffffffffffffffffffffffffffffffffffff1673ffffffffffffffffffffffffffffffffffffffff168152602001908152602001600020819055508173ffffffffffffffffffffffffffffffffffffffff163373ffffffffffffffffffffffffffffffffffffffff167f8c5be1e5ebec7d5bd14f71427d1e84f3dd0314c0f7b2291e5b200ac8c7c3b925836040518082815260200191505060405180910390a35050565b60045481565b600860009054906101000a900460ff1615156107cf57600080fd5b6107da838383610d31565b505050565b600360009054906101000a900473ffffffffffffffffffffffffffffffffffffffff1673ffffffffffffffffffffffffffffffffffffffff163373ffffffffffffffffffffffffffffffffffffffff1614151561083b57600080fd5b6001600860006101000a81548160ff021916908315150217905550565b60075481565b6000600360009054906101000a900473ffffffffffffffffffffffffffffffffffffffff1673ffffffffffffffffffffffffffffffffffffffff163373ffffffffffffffffffffffffffffffffffffffff161415156108bc57600080fd5b600360149054906101000a900460ff16156108d657600080fd5b6108eb82600454610ff190919063ffffffff16565b60048190555061094382600160008673ffffffffffffffffffffffffffffffffffffffff1673ffffffffffffffffffffffffffffffffffffffff16815260200190815260200160002054610ff190919063ffffffff16565b600160008573ffffffffffffffffffffffffffffffffffffffff1673ffffffffffffffffffffffffffffffffffffffff168152602001908152602001600020819055508273ffffffffffffffffffffffffffffffffffffffff167f0f6798a560793a54c3bcfe86a93cde1e73087d944c0ea20544137d4121396885836040518082815260200191505060405180910390a26001905092915050565b600860009054906101000a900460ff1681565b6000600160008373ffffffffffffffffffffffffffffffffffffffff1673ffffffffffffffffffffffffffffffffffffffff168152602001908152602001600020549050919050565b6000600360009054906101000a900473ffffffffffffffffffffffffffffffffffffffff1673ffffffffffffffffffffffffffffffffffffffff163373ffffffffffffffffffffffffffffffffffffffff16141515610a9857600080fd5b6001600360146101000a81548160ff0219169083151502179055507fae5184fba832cb2b1f702aca6117b8d265eaf03ad33eb133f19dde0f5920fa0860405160405180910390a16001905090565b600360009054906101000a900473ffffffffffffffffffffffffffffffffffffffff1681565b60068054600181600116156101000203166002900480601f016020809104026020016040519081016040528092919081815260200182805460018160011615610100020316600290048015610ba25780601f10610b7757610100808354040283529160200191610ba2565b820191906000526020600020905b815481529060010190602001808311610b8557829003601f168201915b505050505081565b600860009054906101000a900460ff161515610bc557600080fd5b610bcf828261100f565b5050565b6000600260008473ffffffffffffffffffffffffffffffffffffffff1673ffffffffffffffffffffffffffffffffffffffff16815260200190815260200160002060008373ffffffffffffffffffffffffffffffffffffffff1673ffffffffffffffffffffffffffffffffffffffff16815260200190815260200160002054905092915050565b600360009054906101000a900473ffffffffffffffffffffffffffffffffffffffff1673ffffffffffffffffffffffffffffffffffffffff163373ffffffffffffffffffffffffffffffffffffffff16141515610cb657600080fd5b600073ffffffffffffffffffffffffffffffffffffffff168173ffffffffffffffffffffffffffffffffffffffff16141515610d2e5780600360006101000a81548173ffffffffffffffffffffffffffffffffffffffff021916908373ffffffffffffffffffffffffffffffffffffffff1602179055505b50565b600060606004810160003690501015610d4957600080fd5b600260008673ffffffffffffffffffffffffffffffffffffffff1673ffffffffffffffffffffffffffffffffffffffff16815260200190815260200160002060003373ffffffffffffffffffffffffffffffffffffffff1673ffffffffffffffffffffffffffffffffffffffff168152602001908152602001600020549150610e1a83600160008773ffffffffffffffffffffffffffffffffffffffff1673ffffffffffffffffffffffffffffffffffffffff16815260200190815260200160002054610ff190919063ffffffff16565b600160008673ffffffffffffffffffffffffffffffffffffffff1673ffffffffffffffffffffffffffffffffffffffff16815260200190815260200160002081905550610eaf83600160008873ffffffffffffffffffffffffffffffffffffffff1673ffffffffffffffffffffffffffffffffffffffff168152602001908152602001600020546111b990919063ffffffff16565b600160008773ffffffffffffffffffffffffffffffffffffffff1673ffffffffffffffffffffffffffffffffffffffff16815260200190815260200160002081905550610f0583836111b990919063ffffffff16565b600260008773ffffffffffffffffffffffffffffffffffffffff1673ffffffffffffffffffffffffffffffffffffffff16815260200190815260200160002060003373ffffffffffffffffffffffffffffffffffffffff1673ffffffffffffffffffffffffffffffffffffffff168152602001908152602001600020819055508373ffffffffffffffffffffffffffffffffffffffff168573ffffffffffffffffffffffffffffffffffffffff167fddf252ad1be2c89b69c2b068fc378daa952ba7f163c4a11628f55a4df523b3ef856040518082815260200191505060405180910390a35050505050565b6000808284019050611005848210156111d2565b8091505092915050565b6040600481016000369050101561102557600080fd5b61107782600160003373ffffffffffffffffffffffffffffffffffffffff1673ffffffffffffffffffffffffffffffffffffffff168152602001908152602001600020546111b990919063ffffffff16565b600160003373ffffffffffffffffffffffffffffffffffffffff1673ffffffffffffffffffffffffffffffffffffffff1681526020019081526020016000208190555061110c82600160008673ffffffffffffffffffffffffffffffffffffffff1673ffffffffffffffffffffffffffffffffffffffff16815260200190815260200160002054610ff190919063ffffffff16565b600160008573ffffffffffffffffffffffffffffffffffffffff1673ffffffffffffffffffffffffffffffffffffffff168152602001908152602001600020819055508273ffffffffffffffffffffffffffffffffffffffff163373ffffffffffffffffffffffffffffffffffffffff167fddf252ad1be2c89b69c2b068fc378daa952ba7f163c4a11628f55a4df523b3ef846040518082815260200191505060405180910390a3505050565b60006111c7838311156111d2565b818303905092915050565b8015156111de57600080fd5b505600a165627a7a72305820a296a96f8faca32cb22f800fe83c1f1d5f1598b7a886e0fdfd4ccc19e216c31f0029",
  "source": "pragma solidity 0.4.18;\n\n\n/**\n * @title Ownable\n * @dev The Ownable contract has an owner address, and provides basic authorization control \n * functions, this simplifies the implementation of \"user permissions\". \n */\ncontract Ownable {\n  address public owner;\n\n\n  /** \n   * @dev The Ownable constructor sets the original `owner` of the contract to the sender\n   * account.\n   */\n  function Ownable() {\n    owner = msg.sender;\n  }\n\n\n  /**\n   * @dev Throws if called by any account other than the owner. \n   */\n  modifier onlyOwner() {\n    if (msg.sender != owner) {\n      throw;\n    }\n    _;\n  }\n\n\n  /**\n   * @dev Allows the current owner to transfer control of the contract to a newOwner.\n   * @param newOwner The address to transfer ownership to. \n   */\n  function transferOwnership(address newOwner) onlyOwner {\n    if (newOwner != address(0)) {\n      owner = newOwner;\n    }\n  }\n\n}\n\n\n\n/**\n * @title Authorizable\n * @dev Allows to authorize access to certain function calls\n * \n * ABI\n * [{\"constant\":true,\"inputs\":[{\"name\":\"authorizerIndex\",\"type\":\"uint256\"}],\"name\":\"getAuthorizer\",\"outputs\":[{\"name\":\"\",\"type\":\"address\"}],\"payable\":false,\"type\":\"function\"},{\"constant\":false,\"inputs\":[{\"name\":\"_addr\",\"type\":\"address\"}],\"name\":\"addAuthorized\",\"outputs\":[],\"payable\":false,\"type\":\"function\"},{\"constant\":true,\"inputs\":[{\"name\":\"_addr\",\"type\":\"address\"}],\"name\":\"isAuthorized\",\"outputs\":[{\"name\":\"\",\"type\":\"bool\"}],\"payable\":false,\"type\":\"function\"},{\"inputs\":[],\"payable\":false,\"type\":\"constructor\"}]\n */\ncontract Authorizable {\n\n  address[] authorizers;\n  mapping(address => uint) authorizerIndex;\n\n  /**\n   * @dev Throws if called by any account tat is not authorized. \n   */\n  modifier onlyAuthorized {\n    require(isAuthorized(msg.sender));\n    _;\n  }\n\n  /**\n   * @dev Contructor that authorizes the msg.sender. \n   */\n  function Authorizable() {\n    authorizers.length = 2;\n    authorizers[1] = msg.sender;\n    authorizerIndex[msg.sender] = 1;\n  }\n\n  /**\n   * @dev Function to get a specific authorizer\n   * @param authorizerIndex index of the authorizer to be retrieved.\n   * @return The address of the authorizer.\n   */\n  function getAuthorizer(uint authorizerIndex) external constant returns(address) {\n    return address(authorizers[authorizerIndex + 1]);\n  }\n\n  /**\n   * @dev Function to check if an address is authorized\n   * @param _addr the address to check if it is authorized.\n   * @return boolean flag if address is authorized.\n   */\n  function isAuthorized(address _addr) constant returns(bool) {\n    return authorizerIndex[_addr] > 0;\n  }\n\n  /**\n   * @dev Function to add a new authorizer\n   * @param _addr the address to add as a new authorizer.\n   */\n  function addAuthorized(address _addr) external onlyAuthorized {\n    authorizerIndex[_addr] = authorizers.length;\n    authorizers.length++;\n    authorizers[authorizers.length - 1] = _addr;\n  }\n\n}\n\n/**\n * @title ExchangeRate\n * @dev Allows updating and retrieveing of Conversion Rates for PAY tokens\n *\n * ABI\n * [{\"constant\":false,\"inputs\":[{\"name\":\"_symbol\",\"type\":\"string\"},{\"name\":\"_rate\",\"type\":\"uint256\"}],\"name\":\"updateRate\",\"outputs\":[],\"payable\":false,\"type\":\"function\"},{\"constant\":false,\"inputs\":[{\"name\":\"data\",\"type\":\"uint256[]\"}],\"name\":\"updateRates\",\"outputs\":[],\"payable\":false,\"type\":\"function\"},{\"constant\":true,\"inputs\":[{\"name\":\"_symbol\",\"type\":\"string\"}],\"name\":\"getRate\",\"outputs\":[{\"name\":\"\",\"type\":\"uint256\"}],\"payable\":false,\"type\":\"function\"},{\"constant\":true,\"inputs\":[],\"name\":\"owner\",\"outputs\":[{\"name\":\"\",\"type\":\"address\"}],\"payable\":false,\"type\":\"function\"},{\"constant\":true,\"inputs\":[{\"name\":\"\",\"type\":\"bytes32\"}],\"name\":\"rates\",\"outputs\":[{\"name\":\"\",\"type\":\"uint256\"}],\"payable\":false,\"type\":\"function\"},{\"constant\":false,\"inputs\":[{\"name\":\"newOwner\",\"type\":\"address\"}],\"name\":\"transferOwnership\",\"outputs\":[],\"payable\":false,\"type\":\"function\"},{\"anonymous\":false,\"inputs\":[{\"indexed\":false,\"name\":\"timestamp\",\"type\":\"uint256\"},{\"indexed\":false,\"name\":\"symbol\",\"type\":\"bytes32\"},{\"indexed\":false,\"name\":\"rate\",\"type\":\"uint256\"}],\"name\":\"RateUpdated\",\"type\":\"event\"}]\n */\ncontract ExchangeRate is Ownable {\n\n  event RateUpdated(uint timestamp, bytes32 symbol, uint rate);\n\n  mapping(bytes32 => uint) public rates;\n\n  /**\n   * @dev Allows the current owner to update a single rate.\n   * @param _symbol The symbol to be updated. \n   * @param _rate the rate for the symbol. \n   */\n  function updateRate(string _symbol, uint _rate) public onlyOwner {\n    rates[sha3(_symbol)] = _rate;\n    RateUpdated(now, sha3(_symbol), _rate);\n  }\n\n  /**\n   * @dev Allows the current owner to update multiple rates.\n   * @param data an array that alternates sha3 hashes of the symbol and the corresponding rate . \n   */\n  function updateRates(uint[] data) public onlyOwner {\n    if (data.length % 2 > 0)\n      throw;\n    uint i = 0;\n    while (i < data.length / 2) {\n      bytes32 symbol = bytes32(data[i * 2]);\n      uint rate = data[i * 2 + 1];\n      rates[symbol] = rate;\n      RateUpdated(now, symbol, rate);\n      i++;\n    }\n  }\n\n  /**\n   * @dev Allows the anyone to read the current rate.\n   * @param _symbol the symbol to be retrieved. \n   */\n  function getRate(string _symbol) public constant returns(uint) {\n    return rates[sha3(_symbol)];\n  }\n\n}\n\n/**\n * Math operations with safety checks\n */\nlibrary SafeMath {\n  function mul(uint a, uint b) internal returns (uint) {\n    uint c = a * b;\n    assert(a == 0 || c / a == b);\n    return c;\n  }\n\n  function div(uint a, uint b) internal returns (uint) {\n    // assert(b > 0); // Solidity automatically throws when dividing by 0\n    uint c = a / b;\n    // assert(a == b * c + a % b); // There is no case in which this doesn't hold\n    return c;\n  }\n\n  function sub(uint a, uint b) internal returns (uint) {\n    assert(b <= a);\n    return a - b;\n  }\n\n  function add(uint a, uint b) internal returns (uint) {\n    uint c = a + b;\n    assert(c >= a);\n    return c;\n  }\n\n  function max64(uint64 a, uint64 b) internal constant returns (uint64) {\n    return a >= b ? a : b;\n  }\n\n  function min64(uint64 a, uint64 b) internal constant returns (uint64) {\n    return a < b ? a : b;\n  }\n\n  function max256(uint256 a, uint256 b) internal constant returns (uint256) {\n    return a >= b ? a : b;\n  }\n\n  function min256(uint256 a, uint256 b) internal constant returns (uint256) {\n    return a < b ? a : b;\n  }\n\n  function assert(bool assertion) internal {\n    if (!assertion) {\n      throw;\n    }\n  }\n}\n\n\n/**\n * @title ERC20Basic\n * @dev Simpler version of ERC20 interface\n * @dev see https://github.com/ethereum/EIPs/issues/20\n */\ncontract ERC20Basic {\n  uint public totalSupply;\n  function balanceOf(address who) constant returns (uint);\n  function transfer(address to, uint value);\n  event Transfer(address indexed from, address indexed to, uint value);\n}\n\n\n\n\n/**\n * @title ERC20 interface\n * @dev see https://github.com/ethereum/EIPs/issues/20\n */\ncontract ERC20 is ERC20Basic {\n  function allowance(address owner, address spender) constant returns (uint);\n  function transferFrom(address from, address to, uint value);\n  function approve(address spender, uint value);\n  event Approval(address indexed owner, address indexed spender, uint value);\n}\n\n\n\n\n/**\n * @title Basic token\n * @dev Basic version of StandardToken, with no allowances. \n */\ncontract BasicToken is ERC20Basic {\n  using SafeMath for uint;\n\n  mapping(address => uint) balances;\n\n  /**\n   * @dev Fix for the ERC20 short address attack.\n   */\n  modifier onlyPayloadSize(uint size) {\n     if(msg.data.length < size + 4) {\n       throw;\n     }\n     _;\n  }\n\n  /**\n  * @dev transfer token for a specified address\n  * @param _to The address to transfer to.\n  * @param _value The amount to be transferred.\n  */\n  function transfer(address _to, uint _value) onlyPayloadSize(2 * 32) {\n    balances[msg.sender] = balances[msg.sender].sub(_value);\n    balances[_to] = balances[_to].add(_value);\n    Transfer(msg.sender, _to, _value);\n  }\n\n  /**\n  * @dev Gets the balance of the specified address.\n  * @param _owner The address to query the the balance of. \n  * @return An uint representing the amount owned by the passed address.\n  */\n  function balanceOf(address _owner) constant returns (uint balance) {\n    return balances[_owner];\n  }\n\n}\n\n\n\n\n/**\n * @title Standard ERC20 token\n *\n * @dev Implemantation of the basic standart token.\n * @dev https://github.com/ethereum/EIPs/issues/20\n * @dev Based on code by FirstBlood: https://github.com/Firstbloodio/token/blob/master/smart_contract/FirstBloodToken.sol\n */\ncontract StandardToken is BasicToken, ERC20 {\n\n  mapping (address => mapping (address => uint)) allowed;\n\n\n  /**\n   * @dev Transfer tokens from one address to another\n   * @param _from address The address which you want to send tokens from\n   * @param _to address The address which you want to transfer to\n   * @param _value uint the amout of tokens to be transfered\n   */\n  function transferFrom(address _from, address _to, uint _value) onlyPayloadSize(3 * 32) {\n    var _allowance = allowed[_from][msg.sender];\n\n    // Check is not needed because sub(_allowance, _value) will already throw if this condition is not met\n    // if (_value > _allowance) throw;\n\n    balances[_to] = balances[_to].add(_value);\n    balances[_from] = balances[_from].sub(_value);\n    allowed[_from][msg.sender] = _allowance.sub(_value);\n    Transfer(_from, _to, _value);\n  }\n\n  /**\n   * @dev Aprove the passed address to spend the specified amount of tokens on beahlf of msg.sender.\n   * @param _spender The address which will spend the funds.\n   * @param _value The amount of tokens to be spent.\n   */\n  function approve(address _spender, uint _value) {\n\n    // To change the approve amount you first have to reduce the addresses`\n    //  allowance to zero by calling `approve(_spender, 0)` if it is not\n    //  already 0 to mitigate the race condition described here:\n    //  https://github.com/ethereum/EIPs/issues/20#issuecomment-263524729\n    if ((_value != 0) && (allowed[msg.sender][_spender] != 0)) throw;\n\n    allowed[msg.sender][_spender] = _value;\n    Approval(msg.sender, _spender, _value);\n  }\n\n  /**\n   * @dev Function to check the amount of tokens than an owner allowed to a spender.\n   * @param _owner address The address which owns the funds.\n   * @param _spender address The address which will spend the funds.\n   * @return A uint specifing the amount of tokens still avaible for the spender.\n   */\n  function allowance(address _owner, address _spender) constant returns (uint remaining) {\n    return allowed[_owner][_spender];\n  }\n\n}\n\n\n\n\n\n\n/**\n * @title Mintable token\n * @dev Simple ERC20 Token example, with mintable token creation\n * @dev Issue: * https://github.com/OpenZeppelin/zeppelin-solidity/issues/120\n * Based on code by TokenMarketNet: https://github.com/TokenMarketNet/ico/blob/master/contracts/MintableToken.sol\n */\n\ncontract MintableToken is StandardToken, Ownable {\n  event Mint(address indexed to, uint value);\n  event MintFinished();\n\n  bool public mintingFinished = false;\n  uint public totalSupply = 0;\n\n\n  modifier canMint() {\n    if(mintingFinished) throw;\n    _;\n  }\n\n  /**\n   * @dev Function to mint tokens\n   * @param _to The address that will recieve the minted tokens.\n   * @param _amount The amount of tokens to mint.\n   * @return A boolean that indicates if the operation was successful.\n   */\n  function mint(address _to, uint _amount) onlyOwner canMint returns (bool) {\n    totalSupply = totalSupply.add(_amount);\n    balances[_to] = balances[_to].add(_amount);\n    Mint(_to, _amount);\n    return true;\n  }\n\n  /**\n   * @dev Function to stop minting new tokens.\n   * @return True if the operation was successful.\n   */\n  function finishMinting() onlyOwner returns (bool) {\n    mintingFinished = true;\n    MintFinished();\n    return true;\n  }\n}\n\n\n/**\n * @title PayToken\n * @dev The main PAY token contract\n * \n * ABI \n * [{\"constant\":true,\"inputs\":[],\"name\":\"mintingFinished\",\"outputs\":[{\"name\":\"\",\"type\":\"bool\"}],\"payable\":false,\"type\":\"function\"},{\"constant\":true,\"inputs\":[],\"name\":\"name\",\"outputs\":[{\"name\":\"\",\"type\":\"string\"}],\"payable\":false,\"type\":\"function\"},{\"constant\":false,\"inputs\":[{\"name\":\"_spender\",\"type\":\"address\"},{\"name\":\"_value\",\"type\":\"uint256\"}],\"name\":\"approve\",\"outputs\":[],\"payable\":false,\"type\":\"function\"},{\"constant\":true,\"inputs\":[],\"name\":\"totalSupply\",\"outputs\":[{\"name\":\"\",\"type\":\"uint256\"}],\"payable\":false,\"type\":\"function\"},{\"constant\":false,\"inputs\":[{\"name\":\"_from\",\"type\":\"address\"},{\"name\":\"_to\",\"type\":\"address\"},{\"name\":\"_value\",\"type\":\"uint256\"}],\"name\":\"transferFrom\",\"outputs\":[],\"payable\":false,\"type\":\"function\"},{\"constant\":false,\"inputs\":[],\"name\":\"startTrading\",\"outputs\":[],\"payable\":false,\"type\":\"function\"},{\"constant\":true,\"inputs\":[],\"name\":\"decimals\",\"outputs\":[{\"name\":\"\",\"type\":\"uint256\"}],\"payable\":false,\"type\":\"function\"},{\"constant\":false,\"inputs\":[{\"name\":\"_to\",\"type\":\"address\"},{\"name\":\"_amount\",\"type\":\"uint256\"}],\"name\":\"mint\",\"outputs\":[{\"name\":\"\",\"type\":\"bool\"}],\"payable\":false,\"type\":\"function\"},{\"constant\":true,\"inputs\":[],\"name\":\"tradingStarted\",\"outputs\":[{\"name\":\"\",\"type\":\"bool\"}],\"payable\":false,\"type\":\"function\"},{\"constant\":true,\"inputs\":[{\"name\":\"_owner\",\"type\":\"address\"}],\"name\":\"balanceOf\",\"outputs\":[{\"name\":\"balance\",\"type\":\"uint256\"}],\"payable\":false,\"type\":\"function\"},{\"constant\":false,\"inputs\":[],\"name\":\"finishMinting\",\"outputs\":[{\"name\":\"\",\"type\":\"bool\"}],\"payable\":false,\"type\":\"function\"},{\"constant\":true,\"inputs\":[],\"name\":\"owner\",\"outputs\":[{\"name\":\"\",\"type\":\"address\"}],\"payable\":false,\"type\":\"function\"},{\"constant\":true,\"inputs\":[],\"name\":\"symbol\",\"outputs\":[{\"name\":\"\",\"type\":\"string\"}],\"payable\":false,\"type\":\"function\"},{\"constant\":false,\"inputs\":[{\"name\":\"_to\",\"type\":\"address\"},{\"name\":\"_value\",\"type\":\"uint256\"}],\"name\":\"transfer\",\"outputs\":[],\"payable\":false,\"type\":\"function\"},{\"constant\":true,\"inputs\":[{\"name\":\"_owner\",\"type\":\"address\"},{\"name\":\"_spender\",\"type\":\"address\"}],\"name\":\"allowance\",\"outputs\":[{\"name\":\"remaining\",\"type\":\"uint256\"}],\"payable\":false,\"type\":\"function\"},{\"constant\":false,\"inputs\":[{\"name\":\"newOwner\",\"type\":\"address\"}],\"name\":\"transferOwnership\",\"outputs\":[],\"payable\":false,\"type\":\"function\"},{\"anonymous\":false,\"inputs\":[{\"indexed\":true,\"name\":\"to\",\"type\":\"address\"},{\"indexed\":false,\"name\":\"value\",\"type\":\"uint256\"}],\"name\":\"Mint\",\"type\":\"event\"},{\"anonymous\":false,\"inputs\":[],\"name\":\"MintFinished\",\"type\":\"event\"},{\"anonymous\":false,\"inputs\":[{\"indexed\":true,\"name\":\"owner\",\"type\":\"address\"},{\"indexed\":true,\"name\":\"spender\",\"type\":\"address\"},{\"indexed\":false,\"name\":\"value\",\"type\":\"uint256\"}],\"name\":\"Approval\",\"type\":\"event\"},{\"anonymous\":false,\"inputs\":[{\"indexed\":true,\"name\":\"from\",\"type\":\"address\"},{\"indexed\":true,\"name\":\"to\",\"type\":\"address\"},{\"indexed\":false,\"name\":\"value\",\"type\":\"uint256\"}],\"name\":\"Transfer\",\"type\":\"event\"}]\n */\ncontract PayToken is MintableToken {\n\n  string public name = \"TenX Pay Token\";\n  string public symbol = \"PAY\";\n  uint public decimals = 18;\n\n  bool public tradingStarted = false;\n\n  /**\n   * @dev modifier that throws if trading has not started yet\n   */\n  modifier hasStartedTrading() {\n    require(tradingStarted);\n    _;\n  }\n\n  /**\n   * @dev Allows the owner to enable the trading. This can not be undone\n   */\n  function startTrading() onlyOwner {\n    tradingStarted = true;\n  }\n\n  /**\n   * @dev Allows anyone to transfer the PAY tokens once trading has started\n   * @param _to the recipient address of the tokens. \n   * @param _value number of tokens to be transfered. \n   */\n  function transfer(address _to, uint _value) hasStartedTrading {\n    super.transfer(_to, _value);\n  }\n\n   /**\n   * @dev Allows anyone to transfer the PAY tokens once trading has started\n   * @param _from address The address which you want to send tokens from\n   * @param _to address The address which you want to transfer to\n   * @param _value uint the amout of tokens to be transfered\n   */\n  function transferFrom(address _from, address _to, uint _value) hasStartedTrading {\n    super.transferFrom(_from, _to, _value);\n  }\n\n}\n\n\n/**\n * @title MainSale\n * @dev The main PAY token sale contract\n * \n * ABI\n * [{\"constant\":false,\"inputs\":[{\"name\":\"_multisigVault\",\"type\":\"address\"}],\"name\":\"setMultisigVault\",\"outputs\":[],\"payable\":false,\"type\":\"function\"},{\"constant\":true,\"inputs\":[{\"name\":\"authorizerIndex\",\"type\":\"uint256\"}],\"name\":\"getAuthorizer\",\"outputs\":[{\"name\":\"\",\"type\":\"address\"}],\"payable\":false,\"type\":\"function\"},{\"constant\":true,\"inputs\":[],\"name\":\"exchangeRate\",\"outputs\":[{\"name\":\"\",\"type\":\"address\"}],\"payable\":false,\"type\":\"function\"},{\"constant\":true,\"inputs\":[],\"name\":\"altDeposits\",\"outputs\":[{\"name\":\"\",\"type\":\"uint256\"}],\"payable\":false,\"type\":\"function\"},{\"constant\":false,\"inputs\":[{\"name\":\"recipient\",\"type\":\"address\"},{\"name\":\"tokens\",\"type\":\"uint256\"}],\"name\":\"authorizedCreateTokens\",\"outputs\":[],\"payable\":false,\"type\":\"function\"},{\"constant\":false,\"inputs\":[],\"name\":\"finishMinting\",\"outputs\":[],\"payable\":false,\"type\":\"function\"},{\"constant\":true,\"inputs\":[],\"name\":\"owner\",\"outputs\":[{\"name\":\"\",\"type\":\"address\"}],\"payable\":false,\"type\":\"function\"},{\"constant\":false,\"inputs\":[{\"name\":\"_exchangeRate\",\"type\":\"address\"}],\"name\":\"setExchangeRate\",\"outputs\":[],\"payable\":false,\"type\":\"function\"},{\"constant\":false,\"inputs\":[{\"name\":\"_token\",\"type\":\"address\"}],\"name\":\"retrieveTokens\",\"outputs\":[],\"payable\":false,\"type\":\"function\"},{\"constant\":false,\"inputs\":[{\"name\":\"totalAltDeposits\",\"type\":\"uint256\"}],\"name\":\"setAltDeposit\",\"outputs\":[],\"payable\":false,\"type\":\"function\"},{\"constant\":true,\"inputs\":[],\"name\":\"start\",\"outputs\":[{\"name\":\"\",\"type\":\"uint256\"}],\"payable\":false,\"type\":\"function\"},{\"constant\":false,\"inputs\":[{\"name\":\"recipient\",\"type\":\"address\"}],\"name\":\"createTokens\",\"outputs\":[],\"payable\":true,\"type\":\"function\"},{\"constant\":false,\"inputs\":[{\"name\":\"_addr\",\"type\":\"address\"}],\"name\":\"addAuthorized\",\"outputs\":[],\"payable\":false,\"type\":\"function\"},{\"constant\":true,\"inputs\":[],\"name\":\"multisigVault\",\"outputs\":[{\"name\":\"\",\"type\":\"address\"}],\"payable\":false,\"type\":\"function\"},{\"constant\":false,\"inputs\":[{\"name\":\"_hardcap\",\"type\":\"uint256\"}],\"name\":\"setHardCap\",\"outputs\":[],\"payable\":false,\"type\":\"function\"},{\"constant\":false,\"inputs\":[{\"name\":\"newOwner\",\"type\":\"address\"}],\"name\":\"transferOwnership\",\"outputs\":[],\"payable\":false,\"type\":\"function\"},{\"constant\":false,\"inputs\":[{\"name\":\"_start\",\"type\":\"uint256\"}],\"name\":\"setStart\",\"outputs\":[],\"payable\":false,\"type\":\"function\"},{\"constant\":true,\"inputs\":[],\"name\":\"token\",\"outputs\":[{\"name\":\"\",\"type\":\"address\"}],\"payable\":false,\"type\":\"function\"},{\"constant\":true,\"inputs\":[{\"name\":\"_addr\",\"type\":\"address\"}],\"name\":\"isAuthorized\",\"outputs\":[{\"name\":\"\",\"type\":\"bool\"}],\"payable\":false,\"type\":\"function\"},{\"payable\":true,\"type\":\"fallback\"},{\"anonymous\":false,\"inputs\":[{\"indexed\":false,\"name\":\"recipient\",\"type\":\"address\"},{\"indexed\":false,\"name\":\"ether_amount\",\"type\":\"uint256\"},{\"indexed\":false,\"name\":\"pay_amount\",\"type\":\"uint256\"},{\"indexed\":false,\"name\":\"exchangerate\",\"type\":\"uint256\"}],\"name\":\"TokenSold\",\"type\":\"event\"},{\"anonymous\":false,\"inputs\":[{\"indexed\":false,\"name\":\"recipient\",\"type\":\"address\"},{\"indexed\":false,\"name\":\"pay_amount\",\"type\":\"uint256\"}],\"name\":\"AuthorizedCreate\",\"type\":\"event\"},{\"anonymous\":false,\"inputs\":[],\"name\":\"MainSaleClosed\",\"type\":\"event\"}]\n */\ncontract MainSale is Ownable, Authorizable {\n  using SafeMath for uint;\n  event TokenSold(address recipient, uint ether_amount, uint pay_amount, uint exchangerate);\n  event AuthorizedCreate(address recipient, uint pay_amount);\n  event MainSaleClosed();\n\n  PayToken public token = new PayToken();\n\n  address public multisigVault;\n\n  uint hardcap = 200000 ether;\n  ExchangeRate public exchangeRate;\n\n  uint public altDeposits = 0;\n  uint public start = 1498302000; //new Date(\"Jun 24 2017 11:00:00 GMT\").getTime() / 1000\n\n  /**\n   * @dev modifier to allow token creation only when the sale IS ON\n   */\n  modifier saleIsOn() {\n    require(now > start && now < start + 28 days);\n    _;\n  }\n\n  /**\n   * @dev modifier to allow token creation only when the hardcap has not been reached\n   */\n  modifier isUnderHardCap() {\n    require(multisigVault.balance + altDeposits <= hardcap);\n    _;\n  }\n\n  /**\n   * @dev Allows anyone to create tokens by depositing ether.\n   * @param recipient the recipient to receive tokens. \n   */\n  function createTokens(address recipient) public isUnderHardCap saleIsOn payable {\n    uint rate = exchangeRate.getRate(\"ETH\");\n    uint tokens = rate.mul(msg.value).div(1 ether);\n    token.mint(recipient, tokens);\n    require(multisigVault.send(msg.value));\n    TokenSold(recipient, msg.value, tokens, rate);\n  }\n\n\n  /**\n   * @dev Allows to set the toal alt deposit measured in ETH to make sure the hardcap includes other deposits\n   * @param totalAltDeposits total amount ETH equivalent\n   */\n  function setAltDeposit(uint totalAltDeposits) public onlyOwner {\n    altDeposits = totalAltDeposits;\n  }\n\n  /**\n   * @dev Allows authorized acces to create tokens. This is used for Bitcoin and ERC20 deposits\n   * @param recipient the recipient to receive tokens.\n   * @param tokens number of tokens to be created. \n   */\n  function authorizedCreateTokens(address recipient, uint tokens) public onlyAuthorized {\n    token.mint(recipient, tokens);\n    AuthorizedCreate(recipient, tokens);\n  }\n\n  /**\n   * @dev Allows the owner to set the hardcap.\n   * @param _hardcap the new hardcap\n   */\n  function setHardCap(uint _hardcap) public onlyOwner {\n    hardcap = _hardcap;\n  }\n\n  /**\n   * @dev Allows the owner to set the starting time.\n   * @param _start the new _start\n   */\n  function setStart(uint _start) public onlyOwner {\n    start = _start;\n  }\n\n  /**\n   * @dev Allows the owner to set the multisig contract.\n   * @param _multisigVault the multisig contract address\n   */\n  function setMultisigVault(address _multisigVault) public onlyOwner {\n    if (_multisigVault != address(0)) {\n      multisigVault = _multisigVault;\n    }\n  }\n\n  /**\n   * @dev Allows the owner to set the exchangerate contract.\n   * @param _exchangeRate the exchangerate address\n   */\n  function setExchangeRate(address _exchangeRate) public onlyOwner {\n    exchangeRate = ExchangeRate(_exchangeRate);\n  }\n\n  /**\n   * @dev Allows the owner to finish the minting. This will create the \n   * restricted tokens and then close the minting.\n   * Then the ownership of the PAY token contract is transfered \n   * to this owner.\n   */\n  function finishMinting() public onlyOwner {\n    uint issuedTokenSupply = token.totalSupply();\n    uint restrictedTokens = issuedTokenSupply.mul(49).div(51);\n    token.mint(multisigVault, restrictedTokens);\n    token.finishMinting();\n    token.transferOwnership(owner);\n    MainSaleClosed();\n  }\n\n  /**\n   * @dev Allows the owner to transfer ERC20 tokens to the multi sig vault\n   * @param _token the contract address of the ERC20 contract\n   */\n  function retrieveTokens(address _token) public onlyOwner {\n    ERC20 token = ERC20(_token);\n    token.transfer(multisigVault, token.balanceOf(this));\n  }\n\n  /**\n   * @dev Fallback function which receives ether and created the appropriate number of tokens for the \n   * msg.sender.\n   */\n  function() external payable {\n    createTokens(msg.sender);\n  }\n\n}",
  "sourcePath": "/home/john/Dropbox/Projects/unum/contracts/dummy/TenxToken.sol",
  "compiler": {
    "name": "solc",
    "version": "0.4.18+commit.9cf6e910.Emscripten.clang"
  },
  "schemaVersion": "1.0.1",
  "updatedAt": "2017-11-26T20:41:25.005Z"
}